{
  "_format": "hh-sol-artifact-1",
  "contractName": "NftPoolAndTriggerBuy",
  "sourceName": "contracts/NftPoolAndTriggerBuy.sol",
  "abi": [
    {
      "inputs": [
        {
          "internalType": "address",
          "name": "_targetNftContractAddress",
          "type": "address"
        },
        {
          "internalType": "uint256",
          "name": "_targetNftTokenId",
          "type": "uint256"
        },
        {
          "internalType": "uint256",
          "name": "_exactNftPriceWei",
          "type": "uint256"
        },
        {
          "internalType": "address",
          "name": "_seaportAddress",
          "type": "address"
        }
      ],
      "stateMutability": "nonpayable",
      "type": "constructor"
    },
    {
      "inputs": [],
      "name": "ReentrancyGuardReentrantCall",
      "type": "error"
    },
    {
      "anonymous": false,
      "inputs": [
        {
          "indexed": true,
          "internalType": "address",
          "name": "contributor",
          "type": "address"
        },
        {
          "indexed": false,
          "internalType": "uint256",
          "name": "amountWei",
          "type": "uint256"
        }
      ],
      "name": "Contributed",
      "type": "event"
    },
    {
      "anonymous": false,
      "inputs": [
        {
          "indexed": true,
          "internalType": "address",
          "name": "contributor",
          "type": "address"
        },
        {
          "indexed": false,
          "internalType": "uint256",
          "name": "amountWei",
          "type": "uint256"
        }
      ],
      "name": "ContributionWithdrawn",
      "type": "event"
    },
    {
      "anonymous": false,
      "inputs": [],
      "name": "EmergencyRefundEnabled",
      "type": "event"
    },
    {
      "anonymous": false,
      "inputs": [
        {
          "indexed": true,
          "internalType": "uint256",
          "name": "tokenId",
          "type": "uint256"
        }
      ],
      "name": "NftAcquiredAndBurned",
      "type": "event"
    },
    {
      "anonymous": false,
      "inputs": [
        {
          "indexed": true,
          "internalType": "address",
          "name": "initiator",
          "type": "address"
        },
        {
          "indexed": false,
          "internalType": "uint256",
          "name": "nftPricePaid",
          "type": "uint256"
        },
        {
          "indexed": false,
          "internalType": "bool",
          "name": "success",
          "type": "bool"
        },
        {
          "indexed": false,
          "internalType": "bytes",
          "name": "reason",
          "type": "bytes"
        }
      ],
      "name": "PurchaseAttempted",
      "type": "event"
    },
    {
      "anonymous": false,
      "inputs": [
        {
          "indexed": true,
          "internalType": "address",
          "name": "contributor",
          "type": "address"
        },
        {
          "indexed": false,
          "internalType": "uint256",
          "name": "amountWei",
          "type": "uint256"
        }
      ],
      "name": "RefundClaimed",
      "type": "event"
    },
    {
      "inputs": [],
      "name": "claimEmergencyRefund",
      "outputs": [],
      "stateMutability": "nonpayable",
      "type": "function"
    },
    {
      "inputs": [],
      "name": "contractDeployer",
      "outputs": [
        {
          "internalType": "address",
          "name": "",
          "type": "address"
        }
      ],
      "stateMutability": "view",
      "type": "function"
    },
    {
      "inputs": [
        {
          "components": [
            {
              "internalType": "address",
              "name": "considerationToken",
              "type": "address"
            },
            {
              "internalType": "uint256",
              "name": "considerationIdentifier",
              "type": "uint256"
            },
            {
              "internalType": "uint256",
              "name": "considerationAmount",
              "type": "uint256"
            },
            {
              "internalType": "address payable",
              "name": "offerer",
              "type": "address"
            },
            {
              "internalType": "address",
              "name": "zone",
              "type": "address"
            },
            {
              "internalType": "address",
              "name": "offerToken",
              "type": "address"
            },
            {
              "internalType": "uint256",
              "name": "offerIdentifier",
              "type": "uint256"
            },
            {
              "internalType": "uint256",
              "name": "offerAmount",
              "type": "uint256"
            },
            {
              "internalType": "uint8",
              "name": "basicOrderType",
              "type": "uint8"
            },
            {
              "internalType": "uint256",
              "name": "startTime",
              "type": "uint256"
            },
            {
              "internalType": "uint256",
              "name": "endTime",
              "type": "uint256"
            },
            {
              "internalType": "bytes32",
              "name": "zoneHash",
              "type": "bytes32"
            },
            {
              "internalType": "uint256",
              "name": "salt",
              "type": "uint256"
            },
            {
              "internalType": "bytes32",
              "name": "offererConduitKey",
              "type": "bytes32"
            },
            {
              "internalType": "bytes32",
              "name": "fulfillerConduitKey",
              "type": "bytes32"
            },
            {
              "internalType": "uint256",
              "name": "totalOriginalAdditionalRecipients",
              "type": "uint256"
            },
            {
              "components": [
                {
                  "internalType": "uint256",
                  "name": "amount",
                  "type": "uint256"
                },
                {
                  "internalType": "address payable",
                  "name": "recipient",
                  "type": "address"
                }
              ],
              "internalType": "struct ISeaport.AdditionalRecipient[]",
              "name": "additionalRecipients",
              "type": "tuple[]"
            },
            {
              "internalType": "bytes",
              "name": "signature",
              "type": "bytes"
            }
          ],
          "internalType": "struct ISeaport.EfficientBasicOrderParameters",
          "name": "seaportOrderParams",
          "type": "tuple"
        }
      ],
      "name": "contributeAndAttemptPurchase",
      "outputs": [],
      "stateMutability": "payable",
      "type": "function"
    },
    {
      "inputs": [
        {
          "internalType": "address",
          "name": "",
          "type": "address"
        }
      ],
      "name": "contributions",
      "outputs": [
        {
          "internalType": "uint256",
          "name": "",
          "type": "uint256"
        }
      ],
      "stateMutability": "view",
      "type": "function"
    },
    {
      "inputs": [],
      "name": "currentState",
      "outputs": [
        {
          "internalType": "enum NftPoolAndTriggerBuy.State",
          "name": "",
          "type": "uint8"
        }
      ],
      "stateMutability": "view",
      "type": "function"
    },
    {
      "inputs": [],
      "name": "enableEmergencyRefund",
      "outputs": [],
      "stateMutability": "nonpayable",
      "type": "function"
    },
    {
      "inputs": [],
      "name": "nftPriceWei",
      "outputs": [
        {
          "internalType": "uint256",
          "name": "",
          "type": "uint256"
        }
      ],
      "stateMutability": "view",
      "type": "function"
    },
    {
      "inputs": [
        {
          "components": [
            {
              "internalType": "address",
              "name": "considerationToken",
              "type": "address"
            },
            {
              "internalType": "uint256",
              "name": "considerationIdentifier",
              "type": "uint256"
            },
            {
              "internalType": "uint256",
              "name": "considerationAmount",
              "type": "uint256"
            },
            {
              "internalType": "address payable",
              "name": "offerer",
              "type": "address"
            },
            {
              "internalType": "address",
              "name": "zone",
              "type": "address"
            },
            {
              "internalType": "address",
              "name": "offerToken",
              "type": "address"
            },
            {
              "internalType": "uint256",
              "name": "offerIdentifier",
              "type": "uint256"
            },
            {
              "internalType": "uint256",
              "name": "offerAmount",
              "type": "uint256"
            },
            {
              "internalType": "uint8",
              "name": "basicOrderType",
              "type": "uint8"
            },
            {
              "internalType": "uint256",
              "name": "startTime",
              "type": "uint256"
            },
            {
              "internalType": "uint256",
              "name": "endTime",
              "type": "uint256"
            },
            {
              "internalType": "bytes32",
              "name": "zoneHash",
              "type": "bytes32"
            },
            {
              "internalType": "uint256",
              "name": "salt",
              "type": "uint256"
            },
            {
              "internalType": "bytes32",
              "name": "offererConduitKey",
              "type": "bytes32"
            },
            {
              "internalType": "bytes32",
              "name": "fulfillerConduitKey",
              "type": "bytes32"
            },
            {
              "internalType": "uint256",
              "name": "totalOriginalAdditionalRecipients",
              "type": "uint256"
            },
            {
              "components": [
                {
                  "internalType": "uint256",
                  "name": "amount",
                  "type": "uint256"
                },
                {
                  "internalType": "address payable",
                  "name": "recipient",
                  "type": "address"
                }
              ],
              "internalType": "struct ISeaport.AdditionalRecipient[]",
              "name": "additionalRecipients",
              "type": "tuple[]"
            },
            {
              "internalType": "bytes",
              "name": "signature",
              "type": "bytes"
            }
          ],
          "internalType": "struct ISeaport.EfficientBasicOrderParameters",
          "name": "seaportOrderParams",
          "type": "tuple"
        }
      ],
      "name": "retryPurchase",
      "outputs": [],
      "stateMutability": "nonpayable",
      "type": "function"
    },
    {
      "inputs": [],
      "name": "seaport",
      "outputs": [
        {
          "internalType": "contract ISeaport",
          "name": "",
          "type": "address"
        }
      ],
      "stateMutability": "view",
      "type": "function"
    },
    {
      "inputs": [],
      "name": "targetNftContract",
      "outputs": [
        {
          "internalType": "contract IERC721",
          "name": "",
          "type": "address"
        }
      ],
      "stateMutability": "view",
      "type": "function"
    },
    {
      "inputs": [],
      "name": "targetNftTokenId",
      "outputs": [
        {
          "internalType": "uint256",
          "name": "",
          "type": "uint256"
        }
      ],
      "stateMutability": "view",
      "type": "function"
    },
    {
      "inputs": [],
      "name": "totalRaisedWei",
      "outputs": [
        {
          "internalType": "uint256",
          "name": "",
          "type": "uint256"
        }
      ],
      "stateMutability": "view",
      "type": "function"
    },
    {
      "inputs": [],
      "name": "withdrawContribution",
      "outputs": [],
      "stateMutability": "nonpayable",
      "type": "function"
    }
  ],
  "bytecode": "0x6101206040523480156200001257600080fd5b5060405162003566380380620035668339818101604052810190620000389190620002f4565b6001600081905550600073ffffffffffffffffffffffffffffffffffffffff168473ffffffffffffffffffffffffffffffffffffffff1603620000b2576040517f08c379a0000000000000000000000000000000000000000000000000000000008152600401620000a990620003ed565b60405180910390fd5b600073ffffffffffffffffffffffffffffffffffffffff168173ffffffffffffffffffffffffffffffffffffffff160362000124576040517f08c379a00000000000000000000000000000000000000000000000000000000081526004016200011b906200045f565b60405180910390fd5b600082116200016a576040517f08c379a00000000000000000000000000000000000000000000000000000000081526004016200016190620004f7565b60405180910390fd5b8373ffffffffffffffffffffffffffffffffffffffff1660808173ffffffffffffffffffffffffffffffffffffffff16815250508260a081815250508160c081815250508073ffffffffffffffffffffffffffffffffffffffff1660e08173ffffffffffffffffffffffffffffffffffffffff16815250503373ffffffffffffffffffffffffffffffffffffffff166101008173ffffffffffffffffffffffffffffffffffffffff16815250506000600360006101000a81548160ff0219169083600281111562000240576200023f62000519565b5b02179055505050505062000548565b600080fd5b600073ffffffffffffffffffffffffffffffffffffffff82169050919050565b6000620002818262000254565b9050919050565b620002938162000274565b81146200029f57600080fd5b50565b600081519050620002b38162000288565b92915050565b6000819050919050565b620002ce81620002b9565b8114620002da57600080fd5b50565b600081519050620002ee81620002c3565b92915050565b600080600080608085870312156200031157620003106200024f565b5b60006200032187828801620002a2565b94505060206200033487828801620002dd565b93505060406200034787828801620002dd565b92505060606200035a87828801620002a2565b91505092959194509250565b600082825260208201905092915050565b7f4e6674506f6f6c3a20496e76616c696420746172676574204e465420636f6e7460008201527f7261637420616464726573730000000000000000000000000000000000000000602082015250565b6000620003d5602c8362000366565b9150620003e28262000377565b604082019050919050565b600060208201905081810360008301526200040881620003c6565b9050919050565b7f4e6674506f6f6c3a20496e76616c696420536561706f72742061646472657373600082015250565b60006200044760208362000366565b915062000454826200040f565b602082019050919050565b600060208201905081810360008301526200047a8162000438565b9050919050565b7f4e6674506f6f6c3a204e4654207072696365206d75737420626520677265617460008201527f6572207468616e20300000000000000000000000000000000000000000000000602082015250565b6000620004df60298362000366565b9150620004ec8262000481565b604082019050919050565b600060208201905081810360008301526200051281620004d0565b9050919050565b7f4e487b7100000000000000000000000000000000000000000000000000000000600052602160045260246000fd5b60805160a05160c05160e05161010051612f4662000620600039600081816107a10152610c24015260008181610c6c0152611189015260008181610a6a01528181610baa01528181610c4801528181610d56015281816110c001528181611122015281816111c2015281816112a20152818161135201528181611605015261167e0152600081816108e301528181610a3401528181610f2501528181611407015281816114b101526115800152600081816108a701528181610b0801528181610e85015281816113cb01526114730152612f466000f3fe6080604052600436106100c25760003560e01c806342e94c901161007f5780638fb70d03116100595780638fb70d0314610211578063a24bfc6e1461023a578063bcddf15014610265578063f5c7bd7014610290576100c2565b806342e94c901461017e5780636dfdb912146101bb5780637f953252146101e6576100c2565b80630c3f6acf146100c75780630d616d20146100f2578063105fd61f1461010957806315aaec0b146101205780631c49c01c1461013757806327b4058614610162575b600080fd5b3480156100d357600080fd5b506100dc6102bb565b6040516100e99190611736565b60405180910390f35b3480156100fe57600080fd5b506101076102ce565b005b34801561011557600080fd5b5061011e610537565b005b34801561012c57600080fd5b5061013561079f565b005b34801561014357600080fd5b5061014c610a32565b604051610159919061176a565b60405180910390f35b61017c600480360381019061017791906117be565b610a56565b005b34801561018a57600080fd5b506101a560048036038101906101a09190611865565b610ae8565b6040516101b2919061176a565b60405180910390f35b3480156101c757600080fd5b506101d0610b00565b6040516101dd919061176a565b60405180910390f35b3480156101f257600080fd5b506101fb610b06565b60405161020891906118f1565b60405180910390f35b34801561021d57600080fd5b50610238600480360381019061023391906117be565b610b2a565b005b34801561024657600080fd5b5061024f610c22565b60405161025c919061191b565b60405180910390f35b34801561027157600080fd5b5061027a610c46565b604051610287919061176a565b60405180910390f35b34801561029c57600080fd5b506102a5610c6a565b6040516102b29190611957565b60405180910390f35b600360009054906101000a900460ff1681565b6102d6610c8e565b600060028111156102ea576102e96116bf565b5b600360009054906101000a900460ff16600281111561030c5761030b6116bf565b5b1461034c576040517f08c379a0000000000000000000000000000000000000000000000000000000008152600401610343906119f5565b60405180910390fd5b6000600260003373ffffffffffffffffffffffffffffffffffffffff1673ffffffffffffffffffffffffffffffffffffffff168152602001908152602001600020549050600081116103d3576040517f08c379a00000000000000000000000000000000000000000000000000000000081526004016103ca90611a87565b60405180910390fd5b6000600260003373ffffffffffffffffffffffffffffffffffffffff1673ffffffffffffffffffffffffffffffffffffffff16815260200190815260200160002081905550806001600082825461042a9190611ad6565b9250508190555060003373ffffffffffffffffffffffffffffffffffffffff168260405161045790611b3b565b60006040518083038185875af1925050503d8060008114610494576040519150601f19603f3d011682016040523d82523d6000602084013e610499565b606091505b50509050806104dd576040517f08c379a00000000000000000000000000000000000000000000000000000000081526004016104d490611b9c565b60405180910390fd5b3373ffffffffffffffffffffffffffffffffffffffff167fd6519e08ea229fce51d7ff642029f51927b4f4e0070fed87fdd3b4f12a9028cc83604051610523919061176a565b60405180910390a25050610535610cd4565b565b61053f610c8e565b600280811115610552576105516116bf565b5b600360009054906101000a900460ff166002811115610574576105736116bf565b5b146105b4576040517f08c379a00000000000000000000000000000000000000000000000000000000081526004016105ab90611c2e565b60405180910390fd5b6000600260003373ffffffffffffffffffffffffffffffffffffffff1673ffffffffffffffffffffffffffffffffffffffff1681526020019081526020016000205490506000811161063b576040517f08c379a000000000000000000000000000000000000000000000000000000000815260040161063290611cc0565b60405180910390fd5b6000600260003373ffffffffffffffffffffffffffffffffffffffff1673ffffffffffffffffffffffffffffffffffffffff1681526020019081526020016000208190555080600160008282546106929190611ad6565b9250508190555060003373ffffffffffffffffffffffffffffffffffffffff16826040516106bf90611b3b565b60006040518083038185875af1925050503d80600081146106fc576040519150601f19603f3d011682016040523d82523d6000602084013e610701565b606091505b5050905080610745576040517f08c379a000000000000000000000000000000000000000000000000000000000815260040161073c90611b9c565b60405180910390fd5b3373ffffffffffffffffffffffffffffffffffffffff167f358fe4192934d3bf28ae181feda1f4bd08ca67f5e2fad55582cce5eb67304ae98360405161078b919061176a565b60405180910390a2505061079d610cd4565b565b7f000000000000000000000000000000000000000000000000000000000000000073ffffffffffffffffffffffffffffffffffffffff163373ffffffffffffffffffffffffffffffffffffffff161461082d576040517f08c379a000000000000000000000000000000000000000000000000000000000815260040161082490611d52565b60405180910390fd5b60006002811115610841576108406116bf565b5b600360009054906101000a900460ff166002811115610863576108626116bf565b5b146108a3576040517f08c379a000000000000000000000000000000000000000000000000000000000815260040161089a90611e0a565b60405180910390fd5b60007f000000000000000000000000000000000000000000000000000000000000000073ffffffffffffffffffffffffffffffffffffffff16636352211e7f00000000000000000000000000000000000000000000000000000000000000006040518263ffffffff1660e01b815260040161091e919061176a565b602060405180830381865afa92505050801561095857506040513d601f19601f820116820180604052508101906109559190611e3f565b60015b15610997573073ffffffffffffffffffffffffffffffffffffffff168173ffffffffffffffffffffffffffffffffffffffff160361099557600191505b505b80156109d8576040517f08c379a00000000000000000000000000000000000000000000000000000000081526004016109cf90611f04565b60405180910390fd5b6002600360006101000a81548160ff021916908360028111156109fe576109fd6116bf565b5b02179055507f722906c49f03ecfd68886afc5c52f1de3511535a86b31fb160b0379d4f34684560405160405180910390a150565b7f000000000000000000000000000000000000000000000000000000000000000081565b610a5e610c8e565b610a683334610cde565b7f000000000000000000000000000000000000000000000000000000000000000060015410158015610acd575060006002811115610aa957610aa86116bf565b5b600360009054906101000a900460ff166002811115610acb57610aca6116bf565b5b145b15610add57610adc3382610e83565b5b610ae5610cd4565b50565b60026020528060005260406000206000915090505481565b60015481565b7f000000000000000000000000000000000000000000000000000000000000000081565b610b32610c8e565b60006002811115610b4657610b456116bf565b5b600360009054906101000a900460ff166002811115610b6857610b676116bf565b5b14610ba8576040517f08c379a0000000000000000000000000000000000000000000000000000000008152600401610b9f90611f70565b60405180910390fd5b7f00000000000000000000000000000000000000000000000000000000000000006001541015610c0d576040517f08c379a0000000000000000000000000000000000000000000000000000000008152600401610c0490612002565b60405180910390fd5b610c173382610e83565b610c1f610cd4565b50565b7f000000000000000000000000000000000000000000000000000000000000000081565b7f000000000000000000000000000000000000000000000000000000000000000081565b7f000000000000000000000000000000000000000000000000000000000000000081565b600260005403610cca576040517f3ee5aeb500000000000000000000000000000000000000000000000000000000815260040160405180910390fd5b6002600081905550565b6001600081905550565b60006002811115610cf257610cf16116bf565b5b600360009054906101000a900460ff166002811115610d1457610d136116bf565b5b14610d54576040517f08c379a0000000000000000000000000000000000000000000000000000000008152600401610d4b90611f70565b60405180910390fd5b7f00000000000000000000000000000000000000000000000000000000000000006001541015610dc25760008111610dc1576040517f08c379a0000000000000000000000000000000000000000000000000000000008152600401610db890612094565b60405180910390fd5b5b8060016000828254610dd491906120b4565b9250508190555080600260008473ffffffffffffffffffffffffffffffffffffffff1673ffffffffffffffffffffffffffffffffffffffff1681526020019081526020016000206000828254610e2a91906120b4565b925050819055508173ffffffffffffffffffffffffffffffffffffffff167f62722348256371b5147820d6cad90c40fd2da1ccee18c3ed52c0bca5a61dbbab82604051610e77919061176a565b60405180910390a25050565b7f000000000000000000000000000000000000000000000000000000000000000073ffffffffffffffffffffffffffffffffffffffff168160a0016020810190610ecd9190611865565b73ffffffffffffffffffffffffffffffffffffffff1614610f23576040517f08c379a0000000000000000000000000000000000000000000000000000000008152600401610f1a9061215a565b60405180910390fd5b7f00000000000000000000000000000000000000000000000000000000000000008160c0013514610f89576040517f08c379a0000000000000000000000000000000000000000000000000000000008152600401610f80906121ec565b60405180910390fd5b60018160e0013514610fd0576040517f08c379a0000000000000000000000000000000000000000000000000000000008152600401610fc79061227e565b60405180910390fd5b600073ffffffffffffffffffffffffffffffffffffffff16816000016020810190610ffb9190611865565b73ffffffffffffffffffffffffffffffffffffffff1614611051576040517f08c379a000000000000000000000000000000000000000000000000000000000815260040161104890612336565b60405180910390fd5b60008160400135905060005b8280610200019061106e9190612365565b90508110156110bd57828061020001906110889190612365565b82818110611099576110986123c8565b5b90506040020160000135826110ae91906120b4565b9150808060010191505061105d565b507f00000000000000000000000000000000000000000000000000000000000000008114611120576040517f08c379a00000000000000000000000000000000000000000000000000000000081526004016111179061248f565b60405180910390fd5b7f0000000000000000000000000000000000000000000000000000000000000000471015611183576040517f08c379a000000000000000000000000000000000000000000000000000000000815260040161117a90612547565b60405180910390fd5b606060007f000000000000000000000000000000000000000000000000000000000000000073ffffffffffffffffffffffffffffffffffffffff1660007f0000000000000000000000000000000000000000000000000000000000000000866040518363ffffffff1660e01b81526004016111fe9190612b35565b60206040518083038185885af19350505050801561123a57506040513d601f19601f820116820180604052508101906112379190612b8f565b60015b61139257611246612bc9565b806308c379a0036112e1575061125a612c4b565b8061126557506112e3565b8092508573ffffffffffffffffffffffffffffffffffffffff167f386f99af5c58fd063e8248854507524cd94f60061f97541c872303e33a2b58c27f00000000000000000000000000000000000000000000000000000000000000006000866040516112d393929190612d69565b60405180910390a25061138d565b505b3d806000811461130f576040519150601f19603f3d011682016040523d82523d6000602084013e611314565b606091505b508092508573ffffffffffffffffffffffffffffffffffffffff167f386f99af5c58fd063e8248854507524cd94f60061f97541c872303e33a2b58c27f000000000000000000000000000000000000000000000000000000000000000060008660405161138393929190612d69565b60405180910390a2505b6116b8565b801561164457600191506001600360006101000a81548160ff021916908360028111156113c2576113c16116bf565b5b021790555060007f000000000000000000000000000000000000000000000000000000000000000073ffffffffffffffffffffffffffffffffffffffff166342966c687f00000000000000000000000000000000000000000000000000000000000000006040518263ffffffff1660e01b8152600401611442919061176a565b600060405180830381600087803b15801561145c57600080fd5b505af192505050801561146d575060015b61157d577f000000000000000000000000000000000000000000000000000000000000000073ffffffffffffffffffffffffffffffffffffffff166323b872dd30837f00000000000000000000000000000000000000000000000000000000000000006040518463ffffffff1660e01b81526004016114ee93929190612da7565b600060405180830381600087803b15801561150857600080fd5b505af1925050508015611519575060015b611577573d8060008114611549576040519150601f19603f3d011682016040523d82523d6000602084013e61154e565b606091505b50806040516020016115609190612e66565b604051602081830303815290604052945050611578565b5b61157e565b5b7f00000000000000000000000000000000000000000000000000000000000000007ffa1afebe50c3f22c9478f5ff4ef116a4249b94fcfde592f772346ccc8dc01f3d60405160405180910390a28673ffffffffffffffffffffffffffffffffffffffff167f386f99af5c58fd063e8248854507524cd94f60061f97541c872303e33a2b58c27f000000000000000000000000000000000000000000000000000000000000000060018760405161163693929190612d69565b60405180910390a2506116b6565b8573ffffffffffffffffffffffffffffffffffffffff167f386f99af5c58fd063e8248854507524cd94f60061f97541c872303e33a2b58c27f000000000000000000000000000000000000000000000000000000000000000060006040516116ad929190612ed4565b60405180910390a25b505b5050505050565b7f4e487b7100000000000000000000000000000000000000000000000000000000600052602160045260246000fd5b600381106116ff576116fe6116bf565b5b50565b6000819050611710826116ee565b919050565b600061172082611702565b9050919050565b61173081611715565b82525050565b600060208201905061174b6000830184611727565b92915050565b6000819050919050565b61176481611751565b82525050565b600060208201905061177f600083018461175b565b92915050565b6000604051905090565b600080fd5b600080fd5b600080fd5b600061024082840312156117b5576117b4611799565b5b81905092915050565b6000602082840312156117d4576117d361178f565b5b600082013567ffffffffffffffff8111156117f2576117f1611794565b5b6117fe8482850161179e565b91505092915050565b600073ffffffffffffffffffffffffffffffffffffffff82169050919050565b600061183282611807565b9050919050565b61184281611827565b811461184d57600080fd5b50565b60008135905061185f81611839565b92915050565b60006020828403121561187b5761187a61178f565b5b600061188984828501611850565b91505092915050565b6000819050919050565b60006118b76118b26118ad84611807565b611892565b611807565b9050919050565b60006118c98261189c565b9050919050565b60006118db826118be565b9050919050565b6118eb816118d0565b82525050565b600060208201905061190660008301846118e2565b92915050565b61191581611827565b82525050565b6000602082019050611930600083018461190c565b92915050565b6000611941826118be565b9050919050565b61195181611936565b82525050565b600060208201905061196c6000830184611948565b92915050565b600082825260208201905092915050565b7f4e6674506f6f6c3a205769746864726177616c73206f6e6c7920616c6c6f776560008201527f6420647572696e672046756e64696e6720737461746500000000000000000000602082015250565b60006119df603683611972565b91506119ea82611983565b604082019050919050565b60006020820190508181036000830152611a0e816119d2565b9050919050565b7f4e6674506f6f6c3a204e6f20636f6e747269627574696f6e20746f207769746860008201527f6472617700000000000000000000000000000000000000000000000000000000602082015250565b6000611a71602483611972565b9150611a7c82611a15565b604082019050919050565b60006020820190508181036000830152611aa081611a64565b9050919050565b7f4e487b7100000000000000000000000000000000000000000000000000000000600052601160045260246000fd5b6000611ae182611751565b9150611aec83611751565b9250828203905081811115611b0457611b03611aa7565b5b92915050565b600081905092915050565b50565b6000611b25600083611b0a565b9150611b3082611b15565b600082019050919050565b6000611b4682611b18565b9150819050919050565b7f455448207472616e73666572206661696c656400000000000000000000000000600082015250565b6000611b86601383611972565b9150611b9182611b50565b602082019050919050565b60006020820190508181036000830152611bb581611b79565b9050919050565b7f4e6674506f6f6c3a20456d657267656e637920726566756e6473206e6f74206160008201527f6374697665000000000000000000000000000000000000000000000000000000602082015250565b6000611c18602583611972565b9150611c2382611bbc565b604082019050919050565b60006020820190508181036000830152611c4781611c0b565b9050919050565b7f4e6674506f6f6c3a204e6f20636f6e747269627574696f6e20746f207265667560008201527f6e64000000000000000000000000000000000000000000000000000000000000602082015250565b6000611caa602283611972565b9150611cb582611c4e565b604082019050919050565b60006020820190508181036000830152611cd981611c9d565b9050919050565b7f4e6674506f6f6c3a2043616c6c6572206973206e6f7420746865206465706c6f60008201527f7965720000000000000000000000000000000000000000000000000000000000602082015250565b6000611d3c602383611972565b9150611d4782611ce0565b604082019050919050565b60006020820190508181036000830152611d6b81611d2f565b9050919050565b7f4e6674506f6f6c3a20456d657267656e637920726566756e64206f6e6c79206160008201527f70706c696361626c65206966207374696c6c20696e2046756e64696e6720737460208201527f6174650000000000000000000000000000000000000000000000000000000000604082015250565b6000611df4604383611972565b9150611dff82611d72565b606082019050919050565b60006020820190508181036000830152611e2381611de7565b9050919050565b600081519050611e3981611839565b92915050565b600060208284031215611e5557611e5461178f565b5b6000611e6384828501611e2a565b91505092915050565b7f4e6674506f6f6c3a204e4654206170706561727320746f20626520616371756960008201527f726564206279207468697320636f6e74726163743b20656d657267656e63792060208201527f726566756e64206e6f74206170706c696361626c650000000000000000000000604082015250565b6000611eee605583611972565b9150611ef982611e6c565b606082019050919050565b60006020820190508181036000830152611f1d81611ee1565b9050919050565b7f4e6674506f6f6c3a204e6f7420696e2046756e64696e67207374617465000000600082015250565b6000611f5a601d83611972565b9150611f6582611f24565b602082019050919050565b60006020820190508181036000830152611f8981611f4d565b9050919050565b7f4e6674506f6f6c3a20496e73756666696369656e742066756e647320666f722060008201527f7075726368617365000000000000000000000000000000000000000000000000602082015250565b6000611fec602883611972565b9150611ff782611f90565b604082019050919050565b6000602082019050818103600083015261201b81611fdf565b9050919050565b7f4e6674506f6f6c3a20436f6e747269627574696f6e206d757374206265203e2060008201527f3020696620706f6f6c206e6f74207965742066756e6465640000000000000000602082015250565b600061207e603883611972565b915061208982612022565b604082019050919050565b600060208201905081810360008301526120ad81612071565b9050919050565b60006120bf82611751565b91506120ca83611751565b92508282019050808211156120e2576120e1611aa7565b5b92915050565b7f4e6674506f6f6c3a204f7264657220706172616d73202d204d69736d6174636860008201527f6564204e465420636f6e747261637420696e206f666665720000000000000000602082015250565b6000612144603883611972565b915061214f826120e8565b604082019050919050565b6000602082019050818103600083015261217381612137565b9050919050565b7f4e6674506f6f6c3a204f7264657220706172616d73202d204d69736d6174636860008201527f6564204e465420494420696e206f666665720000000000000000000000000000602082015250565b60006121d6603283611972565b91506121e18261217a565b604082019050919050565b60006020820190508181036000830152612205816121c9565b9050919050565b7f4e6674506f6f6c3a204f7264657220706172616d73202d204e4654207175616e60008201527f7469747920696e206f66666572206d7573742062652031000000000000000000602082015250565b6000612268603783611972565b91506122738261220c565b604082019050919050565b600060208201905081810360008301526122978161225b565b9050919050565b7f4e6674506f6f6c3a204f7264657220706172616d73202d20436f6e736964657260008201527f6174696f6e20746f6b656e206d7573742062652045544820286164647265737360208201527f2830292900000000000000000000000000000000000000000000000000000000604082015250565b6000612320604483611972565b915061232b8261229e565b606082019050919050565b6000602082019050818103600083015261234f81612313565b9050919050565b600080fd5b600080fd5b600080fd5b6000808335600160200384360303811261238257612381612356565b5b80840192508235915067ffffffffffffffff8211156123a4576123a361235b565b5b6020830192506040820236038313156123c0576123bf612360565b5b509250929050565b7f4e487b7100000000000000000000000000000000000000000000000000000000600052603260045260246000fd5b7f4e6674506f6f6c3a204f7264657220706172616d73202d20546f74616c20455460008201527f482076616c7565206d69736d61746368207769746820636f6e6669677572656460208201527f2070726963650000000000000000000000000000000000000000000000000000604082015250565b6000612479604683611972565b9150612484826123f7565b606082019050919050565b600060208201905081810360008301526124a88161246c565b9050919050565b7f4e6674506f6f6c3a20436f6e7472616374204554482062616c616e636520696e60008201527f73756666696369656e7420666f72207075726368617365202873686f756c642060208201527f6d6174636820746f74616c526169736564576569290000000000000000000000604082015250565b6000612531605583611972565b915061253c826124af565b606082019050919050565b6000602082019050818103600083015261256081612524565b9050919050565b60006125766020840184611850565b905092915050565b61258781611827565b82525050565b61259681611751565b81146125a157600080fd5b50565b6000813590506125b38161258d565b92915050565b60006125c860208401846125a4565b905092915050565b6125d981611751565b82525050565b60006125ea82611807565b9050919050565b6125fa816125df565b811461260557600080fd5b50565b600081359050612617816125f1565b92915050565b600061262c6020840184612608565b905092915050565b61263d816125df565b82525050565b600060ff82169050919050565b61265981612643565b811461266457600080fd5b50565b60008135905061267681612650565b92915050565b600061268b6020840184612667565b905092915050565b61269c81612643565b82525050565b6000819050919050565b6126b5816126a2565b81146126c057600080fd5b50565b6000813590506126d2816126ac565b92915050565b60006126e760208401846126c3565b905092915050565b6126f8816126a2565b82525050565b600080fd5b600080fd5b600080fd5b6000808335600160200384360303811261272a57612729612708565b5b83810192508235915060208301925067ffffffffffffffff821115612752576127516126fe565b5b60408202360383131561276857612767612703565b5b509250929050565b600082825260208201905092915050565b6000819050919050565b6040820161279c60008301836125b9565b6127a960008501826125d0565b506127b7602083018361261d565b6127c46020850182612634565b50505050565b60006127d6838361278b565b60408301905092915050565b600082905092915050565b6000604082019050919050565b60006128068385612770565b935061281182612781565b8060005b8581101561284a5761282782846127e2565b61283188826127ca565b975061283c836127ed565b925050600181019050612815565b5085925050509392505050565b6000808335600160200384360303811261287457612873612708565b5b83810192508235915060208301925067ffffffffffffffff82111561289c5761289b6126fe565b5b6001820236038313156128b2576128b1612703565b5b509250929050565b600082825260208201905092915050565b82818337600083830152505050565b6000601f19601f8301169050919050565b60006128f783856128ba565b93506129048385846128cb565b61290d836128da565b840190509392505050565b6000610240830161292c6000840184612567565b612939600086018261257e565b5061294760208401846125b9565b61295460208601826125d0565b5061296260408401846125b9565b61296f60408601826125d0565b5061297d606084018461261d565b61298a6060860182612634565b506129986080840184612567565b6129a5608086018261257e565b506129b360a0840184612567565b6129c060a086018261257e565b506129ce60c08401846125b9565b6129db60c08601826125d0565b506129e960e08401846125b9565b6129f660e08601826125d0565b50612a0561010084018461267c565b612a13610100860182612693565b50612a226101208401846125b9565b612a306101208601826125d0565b50612a3f6101408401846125b9565b612a4d6101408601826125d0565b50612a5c6101608401846126d8565b612a6a6101608601826126ef565b50612a796101808401846125b9565b612a876101808601826125d0565b50612a966101a08401846126d8565b612aa46101a08601826126ef565b50612ab36101c08401846126d8565b612ac16101c08601826126ef565b50612ad06101e08401846125b9565b612ade6101e08601826125d0565b50612aed61020084018461270d565b858303610200870152612b018382846127fa565b92505050612b13610220840184612857565b858303610220870152612b278382846128eb565b925050508091505092915050565b60006020820190508181036000830152612b4f8184612918565b905092915050565b60008115159050919050565b612b6c81612b57565b8114612b7757600080fd5b50565b600081519050612b8981612b63565b92915050565b600060208284031215612ba557612ba461178f565b5b6000612bb384828501612b7a565b91505092915050565b60008160e01c9050919050565b600060033d1115612be85760046000803e612be5600051612bbc565b90505b90565b7f4e487b7100000000000000000000000000000000000000000000000000000000600052604160045260246000fd5b612c23826128da565b810181811067ffffffffffffffff82111715612c4257612c41612beb565b5b80604052505050565b600060443d10612cd857612c5d611785565b60043d036004823e80513d602482011167ffffffffffffffff82111715612c85575050612cd8565b808201805167ffffffffffffffff811115612ca35750505050612cd8565b80602083010160043d038501811115612cc0575050505050612cd8565b612ccf82602001850186612c1a565b82955050505050505b90565b612ce481612b57565b82525050565b600081519050919050565b600082825260208201905092915050565b60005b83811015612d24578082015181840152602081019050612d09565b60008484015250505050565b6000612d3b82612cea565b612d458185612cf5565b9350612d55818560208601612d06565b612d5e816128da565b840191505092915050565b6000606082019050612d7e600083018661175b565b612d8b6020830185612cdb565b8181036040830152612d9d8184612d30565b9050949350505050565b6000606082019050612dbc600083018661190c565b612dc9602083018561190c565b612dd6604083018461175b565b949350505050565b600081905092915050565b7f4275726e206661696c65643a2000000000000000000000000000000000000000600082015250565b6000612e1f600d83612dde565b9150612e2a82612de9565b600d82019050919050565b6000612e4082612cea565b612e4a8185611b0a565b9350612e5a818560208601612d06565b80840191505092915050565b6000612e7182612e12565b9150612e7d8284612e35565b915081905092915050565b7f536561706f72743a2066756c66696c6c6564207761732066616c736500000000600082015250565b6000612ebe601c83612cf5565b9150612ec982612e88565b602082019050919050565b6000606082019050612ee9600083018561175b565b612ef66020830184612cdb565b8181036040830152612f0781612eb1565b9050939250505056fea26469706673582212205630f75c19b5c984208ab5902afc868e7898cf858f3b4e0df01f7f63827dcf4064736f6c63430008180033",
  "linkReferences": {},
  "deployedLinkReferences": {}
}